:100000000C9462000C948A000C948A000C948A0070
:100010000C948A000C948A000C948A000C948A0038
:100020000C948A000C948A000C948A000C948A0028
:100030000C948A000C948A000C948A000C948A0018
:100040000C943F020C948A000C948A000C948A0051
:100050000C948A000C948A000C948A000C948A00F8
:100060000C948A000C948A000000000024002700F1
:100070002A0000000000250028002B0000000000DE
:1000800023002600290004040404040404040202DA
:100090000202020203030303030301020408102007
:1000A0004080010204081020010204081020000012
:1000B0000007000201000003040600000000000029
:1000C0000000D90111241FBECFEFD8E0DEBFCDBFA5
:1000D00011E0A0E0B1E0EEEFF9E002C005900D9272
:1000E000A230B107D9F711E0A2E0B1E001C01D9242
:1000F000A532B107E1F710E0C4ECD0E004C02297CC
:10010000FE010E94F904C23CD107C9F70E94C60350
:100110000C94FD040C940000FC0110820895FC0175
:10012000108208950895FC01718360837095619534
:100130007F4F738362830895CF93DF93EC018C81AB
:100140009D81181619063CF48AE061E00E94720352
:100150008BE060E008C01D821C828AE060E00E94A3
:1001600072038BE061E00E9472038E819F811816FA
:1001700019063CF487E061E00E94720388E060E0C9
:1001800008C01D821C8287E060E00E94720388E044
:1001900061E00E9472032C813D8137FF03C03095DE
:1001A00021953F4FB901882777FD8095982F0E94B0
:1001B000080423E333E343E250E40E9494040E94E2
:1001C000D5039B01AC0186E0B9010E94D3022C81CA
:1001D0003D8137FF03C0309521953F4FB9018827F6
:1001E00077FD8095982F0E94080423E333E343E2D0
:1001F00050E40E9494040E94D5039B01AC0185E069
:10020000B9010E94D302DF91CF910895EF92FF923E
:100210000F931F938C01FC01E480F5806081718154
:100220006E197F09882777FD8095982F0E94080412
:100230002DEC3CEC4CEC5DE30E9494040E94D50351
:100240006E0D7F1DF80175836483E680F7806281FF
:1002500073816E197F09882777FD8095982F0E94FA
:1002600008042DEC3CEC4CEC5DE30E9494040E94ED
:10027000D5036E0D7F1DF80177836683C8010E9448
:100280009C001F910F91FF90EF900895FC01118247
:1002900010821382128215821482178216828AE0DB
:1002A00061E00E9433038BE061E00E94330387E04A
:1002B00061E00E94330388E061E00E94330386E03E
:1002C00061E00E94330385E061E00E9433030895FA
:1002D0000895FC0184E090E09183808389E190E0BF
:1002E000958384831586148686EB9EE493838283AC
:1002F00081E00E94D0020895FC01808991890895CF
:10030000FC01718B608B08950F931F938C010E94E9
:100310008F00C80102960E9468011F910F910895F5
:10032000CF92DF92EF92FF920F931F93DF93CF93C1
:10033000CDB7DEB760970FB6F894DEBF0FBECDBF66
:100340006C010E948C00C60101960E9492008601F9
:100350000E5F1F4FC8010E946901CE0101960E94E5
:100360008C008981F6018083CE0102960E94920062
:1003700083E0E82EF12CEC0EFD1EC7010E946901FE
:10038000D801F7018EE001900D928150E1F7F6015E
:10039000118A108A60960FB6F894DEBF0FBECDBFEB
:1003A000CF91DF911F910F91FF90EF90DF90CF9051
:1003B000089582E091E00E94900184E191E00E9422
:1003C000460108950F931F93DF93CF93CDB7DEB708
:1003D0006A970FB6F894DEBF0FBECDBF8E01075FE0
:1003E0001F4FC8010E949001A2E0B1E0F80182E134
:1003F00001900D928150E1F78E010F5F1F4FC801F0
:100400000E944601A4E1B1E0F80188E001900D925C
:100410008150E1F76A960FB6F894DEBF0FBECDBFEC
:10042000CF91DF911F910F910895CF93DF9382E0D9
:1004300091E00E9484010E948702EB0109C00E94A2
:1004400087029B01AC0182E091E0B9010E9480012A
:1004500082E091E00E947C019E01281B390B2A302A
:1004600031056CF384E191E064E670E00E94930052
:1004700084E191E00E940601DF91CF9108951F92DF
:100480000F920FB60F9211242F933F938F939F9348
:10049000AF93BF938091200190912101A0912201FF
:1004A000B0912301309124010196A11DB11D232F8C
:1004B0002D5F2D3720F02D570196A11DB11D2093E2
:1004C00024018093200190932101A0932201B093F5
:1004D000230180911C0190911D01A0911E01B091FA
:1004E0001F010196A11DB11D80931C0190931D0158
:1004F000A0931E01B0931F01BF91AF919F918F9167
:100500003F912F910F900FBE0F901F9018958FB7AE
:10051000F8942091200130912101409122015091C5
:1005200023018FBFB901CA010895789484B5826010
:1005300084BD84B5816084BD85B5826085BD85B587
:10054000816085BDEEE6F0E0808181608083E1E836
:10055000F0E010828081826080838081816080836E
:10056000E0E8F0E0808181608083E1EBF0E0808171
:1005700084608083E0EBF0E0808181608083EAE743
:10058000F0E08081846080838081826080838081CC
:10059000816080838081806880831092C10008958B
:1005A0008093000108951F93CF93DF93182FEB01E1
:1005B00061E00E943303209709F44AC0CF3FD10580
:1005C00009F449C0E12FF0E0E255FF4F84918330F8
:1005D000C1F0843028F4813051F08230B1F50CC084
:1005E000863019F1873049F1843079F514C084B52B
:1005F000806884BDC7BD33C084B5806284BDC8BD7A
:100600002EC080918000806880938000D093890004
:10061000C093880024C08091800080628093800015
:10062000D0938B00C0938A001AC08091B00080687C
:100630008093B000C093B30012C08091B00080627C
:100640008093B000C093B4000AC0C038D1051CF438
:10065000812F60E002C0812F61E00E947203DF9170
:10066000CF911F910895CF93DF93482F50E0CA0197
:1006700086569F4FFC0134914A575F4FFA0184918F
:10068000882369F190E0880F991FFC01E859FF4F1A
:10069000A591B491FC01EE58FF4FC591D49166230A
:1006A00051F42FB7F8948C91932F909589238C93C4
:1006B000888189230BC0623061F42FB7F8948C9144
:1006C000932F909589238C938881832B88832FBFC8
:1006D00006C09FB7F8948C91832B8C939FBFDF91BA
:1006E000CF910895482F50E0CA0182559F4FFC01D9
:1006F0002491CA0186569F4FFC0194914A575F4F3F
:10070000FA013491332309F440C0222351F12330FC
:1007100071F0243028F42130A1F0223011F514C0FA
:100720002630B1F02730C1F02430D9F404C08091D4
:1007300080008F7703C0809180008F7D8093800040
:1007400010C084B58F7702C084B58F7D84BD09C089
:100750008091B0008F7703C08091B0008F7D80932F
:10076000B000E32FF0E0EE0FFF1FEE58FF4FA59112
:10077000B4912FB7F894662321F48C919095892336
:1007800002C08C91892B8C932FBF0895CF93DF9358
:100790000E9495020E94E201C0E0D0E00E94150292
:1007A0002097E1F30E940000F9CF04D06894B111C2
:1007B000B5C0089598D088F09F5790F0B92F992729
:1007C000B751A0F0D1F0660F771F881F991F1AF05C
:1007D000BA95C9F712C0B13081F09FD0B1E0089549
:1007E0009CC0672F782F8827B85F39F0B93FCCF3CA
:1007F000869577956795B395D9F73EF49095809552
:10080000709561957F4F8F4F9F4F0895E89409C071
:1008100097FB3EF490958095709561957F4F8F4F33
:100820009F4F9923A9F0F92F96E9BB279395F69549
:10083000879577956795B795F111F8CFFAF4BB0FC7
:1008400011F460FF1BC06F5F7F4F8F4F9F4F16C02B
:10085000882311F096E911C0772321F09EE8872FB5
:10086000762F05C0662371F096E8862F70E060E071
:100870002AF09A95660F771F881FDAF7880F9695EA
:10088000879597F9089597F99F6780E870E060E091
:1008900008959FEF80EC089500240A941616170619
:1008A00018060906089500240A9412161306140661
:1008B00005060895092E0394000C11F4882352F0C4
:1008C000BB0F40F4BF2B11F460FF04C06F5F7F4F7C
:1008D0008F4F9F4F089557FD9058440F551F59F063
:1008E0005F3F71F04795880F97FB991F61F09F3F1D
:1008F00079F087950895121613061406551FF2CF46
:100900004695F1DF08C0161617061806991FF1CF95
:1009100086957105610508940895E894BB276627BC
:100920007727CB0197F908950BD0C4CFB5DF28F016
:10093000BADF18F0952309F0A6CFABCF1124EECF84
:10094000CADFA0F3959FD1F3950F50E0551F629F2A
:10095000F001729FBB27F00DB11D639FAA27F00D18
:10096000B11DAA1F649F6627B00DA11D661F829F3F
:100970002227B00DA11D621F739FB00DA11D621F24
:10098000839FA00D611D221F749F3327A00D611D41
:10099000231F849F600D211D822F762F6A2F112423
:1009A0009F5750408AF0E1F088234AF0EE0FFF1F76
:1009B000BB1F661F771F881F91505040A9F79E3FAD
:1009C000510570F060CFAACF5F3FECF3983EDCF3A7
:1009D000869577956795B795F795E7959F5FC1F7EA
:1009E000FE2B880F911D9695879597F90895EE0F28
:0E09F000FF1F0590F491E02D0994F894FFCFBD
:0209FE000100F6
:00000001FF
