:100000000C9435000C945D000C945D000C945D0024
:100010000C945D000C945D000C945D000C945D00EC
:100020000C945D000C945D000C945D000C945D00DC
:100030000C945D000C945D000C945D000C945D00CC
:100040000C94E3010C945D000C945D000C945D0035
:100050000C945D000C945D000C945D000C945D00AC
:100060000C945D000C945D00530111241FBECFEF72
:10007000D8E0DEBFCDBF11E0A0E0B1E0E6E1F5E001
:1000800002C005900D92A030B107D9F711E0A0E0B1
:10009000B1E001C01D92A231B107E1F710E0CAE65C
:1000A000D0E004C02297FE010E948502C836D10725
:1000B000C9F70E9474020C9489020C940000FC01A0
:1000C000108208950895FC01118210821382128219
:1000D0000895FC0171836083738362830895FC013A
:1000E00088279927861B970B91838083738362836C
:1000F0000895089581E0089580E00895FC018381CA
:1001000094810895FC017483638308950F931F9372
:10011000DF93CF9300D00F92CDB7DEB78C010E9452
:100120005F00C80101960E946200C80102960E9409
:100130007900CE0101960E945F008981F8018083D9
:10014000CE0102960E946200CE0103960E947900C1
:10015000F801148213820F900F900F90CF91DF91CE
:100160001F910F9108950F931F93DF93CF930F92D9
:10017000CDB7DEB78C0109960E947C00CE010196B6
:100180000E947A009801225F3F4F882331F0C90115
:1001900064E670E00E94690005C0C90164E670E091
:1001A0000E946F000F90CF91DF911F910F910895E2
:1001B0000E94B30008958F929F92AF92BF92CF9208
:1001C000DF92EF92FF920F931F93DF93CF9300D0B4
:1001D00000D00F92CDB7DEB76C0129833A834B83F1
:1001E0005C836D83470158010E941F018601075FF0
:1001F0001F4FC8010E948600C6010E960E94630030
:10020000D801FE01319685E001900D928150E1F711
:10021000F60186869786A08AB18A0F900F900F907C
:100220000F900F90CF91DF911F910F91FF90EF9062
:10023000DF90CF90BF90AF909F908F900895CF9216
:10024000DF92EF92FF920F931F93DF93CF9300D033
:1002500000D00F92CDB7DEB76C0129833A834B8370
:100260005C836D830E948600C60105960E94630030
:10027000D601FE01319685E001900D928150E1F7A3
:10028000F601E582F682078310870F900F900F909A
:100290000F900F90CF91DF911F910F91FF90EF90F2
:1002A000DF90CF90089580E091E00E94860085E085
:1002B00091E00E94630008950F931F93DF93CF9303
:1002C000CDB7DEB729970FB6F894DEBF0FBECDBF0E
:1002D0008E010B5F1F4FC8010E948600A0E0B1E0B5
:1002E000F80185E001900D928150E1F7CE01019671
:1002F0000E94630089819A81AB81BC818093050152
:1003000090930601A0930701B093080129960FB6B8
:10031000F894DEBF0FBECDBFCF91DF911F910F913B
:100320000895CF92DF92EF92FF920F931F93DF9386
:10033000CF93CDB7DEB762970FB6F894DEBF0FBE8E
:10034000CDBF0E942B028B0109C00E942B029B0192
:10035000AC0180E091E0B9010E94820080E091E070
:100360000E947E009801281B390B2A3031056CF75A
:10037000E0900501F090060100910701109108013D
:100380006E010894C11CD11CC6012091000130915E
:1003900001014091020150910301609104010E940A
:1003A000DB00C6010E94D80062960FB6F894DEBF4B
:1003B0000FBECDBFCF91DF911F910F91FF90EF90B6
:1003C000DF90CF9008951F920F920FB60F921124D5
:1003D0002F933F938F939F93AF93BF9380910D0182
:1003E00090910E01A0910F01B09110013091110177
:1003F0000196A11DB11D232F2D5F2D3720F02D5704
:100400000196A11DB11D2093110180930D019093C0
:100410000E01A0930F01B0931001809109019091FA
:100420000A01A0910B01B0910C010196A11DB11D13
:100430008093090190930A01A0930B01B0930C01E2
:10044000BF91AF919F918F913F912F910F900FBED0
:100450000F901F9018958FB7F89420910D0130914F
:100460000E0140910F01509110018FBFB901CA01D7
:100470000895789484B5826084BD84B5816084BD1C
:1004800085B5826085BD85B5816085BDEEE6F0E00D
:10049000808181608083E1E8F0E010828081826069
:1004A0008083808181608083E0E8F0E080818160EA
:1004B0008083E1EBF0E0808184608083E0EBF0E01A
:1004C000808181608083EAE7F0E0808184608083BE
:1004D0008081826080838081816080838081806868
:1004E00080831092C1000895CF93DF930E94390258
:1004F0000E945C01C0E0D0E00E9491012097E1F3EE
:100500000E940000F9CFEE0FFF1F0590F491E02D3F
:060510000994F894FFCFEE
:00000001FF
